{
  "contractName": "Vaccination",
  "abi": [
    {
      "inputs": [],
      "payable": false,
      "stateMutability": "nonpayable",
      "type": "constructor"
    },
    {
      "anonymous": false,
      "inputs": [
        {
          "indexed": false,
          "internalType": "uint256",
          "name": "_id",
          "type": "uint256"
        }
      ],
      "name": "OwnerAdded",
      "type": "event"
    },
    {
      "anonymous": false,
      "inputs": [
        {
          "indexed": false,
          "internalType": "uint256",
          "name": "_id",
          "type": "uint256"
        }
      ],
      "name": "OwnerDeleted",
      "type": "event"
    },
    {
      "anonymous": false,
      "inputs": [
        {
          "indexed": false,
          "internalType": "uint256",
          "name": "_id",
          "type": "uint256"
        }
      ],
      "name": "OwnerVerified",
      "type": "event"
    },
    {
      "constant": true,
      "inputs": [],
      "name": "nbOwners",
      "outputs": [
        {
          "internalType": "uint256",
          "name": "",
          "type": "uint256"
        }
      ],
      "payable": false,
      "stateMutability": "view",
      "type": "function"
    },
    {
      "constant": true,
      "inputs": [
        {
          "internalType": "uint256",
          "name": "",
          "type": "uint256"
        }
      ],
      "name": "owners",
      "outputs": [
        {
          "internalType": "uint256",
          "name": "id",
          "type": "uint256"
        },
        {
          "internalType": "string",
          "name": "CIN",
          "type": "string"
        },
        {
          "internalType": "string",
          "name": "FullName",
          "type": "string"
        },
        {
          "internalType": "string",
          "name": "qrHash",
          "type": "string"
        },
        {
          "internalType": "string",
          "name": "vaccine_name",
          "type": "string"
        },
        {
          "internalType": "uint256",
          "name": "nb_shots",
          "type": "uint256"
        }
      ],
      "payable": false,
      "stateMutability": "view",
      "type": "function"
    },
    {
      "constant": false,
      "inputs": [
        {
          "internalType": "string",
          "name": "_cin",
          "type": "string"
        },
        {
          "internalType": "string",
          "name": "_fullName",
          "type": "string"
        },
        {
          "internalType": "string",
          "name": "_qrhash",
          "type": "string"
        },
        {
          "internalType": "string",
          "name": "_nameOfvaccine",
          "type": "string"
        },
        {
          "internalType": "uint256",
          "name": "_nbOfshots",
          "type": "uint256"
        }
      ],
      "name": "addOwner",
      "outputs": [],
      "payable": false,
      "stateMutability": "nonpayable",
      "type": "function"
    },
    {
      "constant": false,
      "inputs": [
        {
          "internalType": "uint256",
          "name": "_id",
          "type": "uint256"
        }
      ],
      "name": "deleteOwner",
      "outputs": [],
      "payable": false,
      "stateMutability": "nonpayable",
      "type": "function"
    },
    {
      "constant": false,
      "inputs": [
        {
          "internalType": "string",
          "name": "qr",
          "type": "string"
        }
      ],
      "name": "verifyOwner",
      "outputs": [
        {
          "internalType": "bool",
          "name": "",
          "type": "bool"
        }
      ],
      "payable": false,
      "stateMutability": "nonpayable",
      "type": "function"
    }
  ],
  "bytecode": "0x60806040526040518060c00160405280600181526020016040518060400160405280600581526020017f413132333400000000000000000000000000000000000000000000000000000081525081526020016040518060400160405280600881526020017f5265646120666f6f00000000000000000000000000000000000000000000000081525081526020016040518060400160405280600881526020017f5265646120666f6f00000000000000000000000000000000000000000000000081525081526020016040518060400160405280600881526020017f73656e6f6661726d0000000000000000000000000000000000000000000000008152508152602001600281525060026000820151816000015560208201518160010190805190602001906200013192919062000812565b5060408201518160020190805190602001906200015092919062000812565b5060608201518160030190805190602001906200016f92919062000812565b5060808201518160040190805190602001906200018e92919062000812565b5060a0820151816005015550506040518060c00160405280600281526020016040518060400160405280600581526020017f423132333400000000000000000000000000000000000000000000000000000081525081526020016040518060400160405280600981526020017f41796f7562206e6f6f000000000000000000000000000000000000000000000081525081526020016040518060400160405280600981526020017f41796f7562206e6f6f000000000000000000000000000000000000000000000081525081526020016040518060400160405280600881526020017f73656e6f6661726d000000000000000000000000000000000000000000000000815250815260200160028152506008600082015181600001556020820151816001019080519060200190620002c892919062000812565b506040820151816002019080519060200190620002e792919062000812565b5060608201518160030190805190602001906200030692919062000812565b5060808201518160040190805190602001906200032592919062000812565b5060a0820151816005015550506040518060c00160405280600381526020016040518060400160405280600581526020017f474133343500000000000000000000000000000000000000000000000000000081525081526020016040518060400160405280600881526020017f53617261206c6f6f00000000000000000000000000000000000000000000000081525081526020016040518060400160405280600881526020017f53617261206c6f6f00000000000000000000000000000000000000000000000081525081526020016040518060400160405280600881526020017f73656e6f6661726d00000000000000000000000000000000000000000000000081525081526020016002815250600e6000820151816000015560208201518160010190805190602001906200045f92919062000812565b5060408201518160020190805190602001906200047e92919062000812565b5060608201518160030190805190602001906200049d92919062000812565b506080820151816004019080519060200190620004bc92919062000812565b5060a0820151816005015550506040518060c00160405280600481526020016040518060400160405280600581526020017f433334353600000000000000000000000000000000000000000000000000000081525081526020016040518060400160405280600981526020017f596168796120736f6f000000000000000000000000000000000000000000000081525081526020016040518060400160405280600981526020017f596168796120736f6f000000000000000000000000000000000000000000000081525081526020016040518060400160405280600881526020017f73656e6f6661726d000000000000000000000000000000000000000000000000815250815260200160028152506014600082015181600001556020820151816001019080519060200190620005f692919062000812565b5060408201518160020190805190602001906200061592919062000812565b5060608201518160030190805190602001906200063492919062000812565b5060808201518160040190805190602001906200065392919062000812565b5060a0820151816005015550506040518060c00160405280600581526020016040518060400160405280600581526020017f443334353600000000000000000000000000000000000000000000000000000081525081526020016040518060400160405280600c81526020017f48696261206c626173736c61000000000000000000000000000000000000000081525081526020016040518060400160405280600c81526020017f48696261206c626173736c61000000000000000000000000000000000000000081525081526020016040518060400160405280600881526020017f73656e6f6661726d00000000000000000000000000000000000000000000000081525081526020016002815250601a6000820151816000015560208201518160010190805190602001906200078d92919062000812565b506040820151816002019080519060200190620007ac92919062000812565b506060820151816003019080519060200190620007cb92919062000812565b506080820151816004019080519060200190620007ea92919062000812565b5060a0820151816005015550503480156200080457600080fd5b5060008081905550620008c1565b828054600181600116156101000203166002900490600052602060002090601f016020900481019282601f106200085557805160ff191683800117855562000886565b8280016001018555821562000886579182015b828111156200088557825182559160200191906001019062000868565b5b50905062000895919062000899565b5090565b620008be91905b80821115620008ba576000816000905550600101620008a0565b5090565b90565b61121180620008d16000396000f3fe608060405234801561001057600080fd5b5060043610610074576000357c010000000000000000000000000000000000000000000000000000000090048063025e7c27146100795780633e116de514610272578063780dd0cf14610345578063b55a124a14610373578063f4c66cbc146105fd575b600080fd5b6100a56004803603602081101561008f57600080fd5b810190808035906020019092919050505061061b565b604051808781526020018060200180602001806020018060200186815260200185810385528a818151815260200191508051906020019080838360005b838110156100fd5780820151818401526020810190506100e2565b50505050905090810190601f16801561012a5780820380516001836020036101000a031916815260200191505b50858103845289818151815260200191508051906020019080838360005b83811015610163578082015181840152602081019050610148565b50505050905090810190601f1680156101905780820380516001836020036101000a031916815260200191505b50858103835288818151815260200191508051906020019080838360005b838110156101c95780820151818401526020810190506101ae565b50505050905090810190601f1680156101f65780820380516001836020036101000a031916815260200191505b50858103825287818151815260200191508051906020019080838360005b8381101561022f578082015181840152602081019050610214565b50505050905090810190601f16801561025c5780820380516001836020036101000a031916815260200191505b509a505050505050505050505060405180910390f35b61032b6004803603602081101561028857600080fd5b81019080803590602001906401000000008111156102a557600080fd5b8201836020820111156102b757600080fd5b803590602001918460018302840111640100000000831117156102d957600080fd5b91908080601f016020809104026020016040519081016040528093929190818152602001838380828437600081840152601f19601f8201169050808301925050505050505091929192905050506108c4565b604051808215151515815260200191505060405180910390f35b6103716004803603602081101561035b57600080fd5b8101908080359060200190929190505050610e80565b005b6105fb600480360360a081101561038957600080fd5b81019080803590602001906401000000008111156103a657600080fd5b8201836020820111156103b857600080fd5b803590602001918460018302840111640100000000831117156103da57600080fd5b91908080601f016020809104026020016040519081016040528093929190818152602001838380828437600081840152601f19601f8201169050808301925050505050505091929192908035906020019064010000000081111561043d57600080fd5b82018360208201111561044f57600080fd5b8035906020019184600183028401116401000000008311171561047157600080fd5b91908080601f016020809104026020016040519081016040528093929190818152602001838380828437600081840152601f19601f820116905080830192505050505050509192919290803590602001906401000000008111156104d457600080fd5b8201836020820111156104e657600080fd5b8035906020019184600183028401116401000000008311171561050857600080fd5b91908080601f016020809104026020016040519081016040528093929190818152602001838380828437600081840152601f19601f8201169050808301925050505050505091929192908035906020019064010000000081111561056b57600080fd5b82018360208201111561057d57600080fd5b8035906020019184600183028401116401000000008311171561059f57600080fd5b91908080601f016020809104026020016040519081016040528093929190818152602001838380828437600081840152601f19601f82011690508083019250505050505050919291929080359060200190929190505050610f3a565b005b610605611062565b6040518082815260200191505060405180910390f35b6001818154811061062857fe5b9060005260206000209060060201600091509050806000015490806001018054600181600116156101000203166002900480601f0160208091040260200160405190810160405280929190818152602001828054600181600116156101000203166002900480156106da5780601f106106af576101008083540402835291602001916106da565b820191906000526020600020905b8154815290600101906020018083116106bd57829003601f168201915b505050505090806002018054600181600116156101000203166002900480601f0160208091040260200160405190810160405280929190818152602001828054600181600116156101000203166002900480156107785780601f1061074d57610100808354040283529160200191610778565b820191906000526020600020905b81548152906001019060200180831161075b57829003601f168201915b505050505090806003018054600181600116156101000203166002900480601f0160208091040260200160405190810160405280929190818152602001828054600181600116156101000203166002900480156108165780601f106107eb57610100808354040283529160200191610816565b820191906000526020600020905b8154815290600101906020018083116107f957829003601f168201915b505050505090806004018054600181600116156101000203166002900480601f0160208091040260200160405190810160405280929190818152602001828054600181600116156101000203166002900480156108b45780601f10610889576101008083540402835291602001916108b4565b820191906000526020600020905b81548152906001019060200180831161089757829003601f168201915b5050505050908060050154905086565b600060016002908060018154018082558091505090600182039060005260206000209060060201600090919290919091506000820154816000015560018201816001019080546001816001161561010002031660029004610926929190611068565b506002820181600201908054600181600116156101000203166002900461094e929190611068565b5060038201816003019080546001816001161561010002031660029004610976929190611068565b506004820181600401908054600181600116156101000203166002900461099e929190611068565b506005820154816005015550505060016008908060018154018082558091505090600182039060005260206000209060060201600090919290919091506000820154816000015560018201816001019080546001816001161561010002031660029004610a0c929190611068565b5060028201816002019080546001816001161561010002031660029004610a34929190611068565b5060038201816003019080546001816001161561010002031660029004610a5c929190611068565b5060048201816004019080546001816001161561010002031660029004610a84929190611068565b50600582015481600501555050506001600e908060018154018082558091505090600182039060005260206000209060060201600090919290919091506000820154816000015560018201816001019080546001816001161561010002031660029004610af2929190611068565b5060028201816002019080546001816001161561010002031660029004610b1a929190611068565b5060038201816003019080546001816001161561010002031660029004610b42929190611068565b5060048201816004019080546001816001161561010002031660029004610b6a929190611068565b506005820154816005015550505060016014908060018154018082558091505090600182039060005260206000209060060201600090919290919091506000820154816000015560018201816001019080546001816001161561010002031660029004610bd8929190611068565b5060028201816002019080546001816001161561010002031660029004610c00929190611068565b5060038201816003019080546001816001161561010002031660029004610c28929190611068565b5060048201816004019080546001816001161561010002031660029004610c50929190611068565b50600582015481600501555050506001601a908060018154018082558091505090600182039060005260206000209060060201600090919290919091506000820154816000015560018201816001019080546001816001161561010002031660029004610cbe929190611068565b5060028201816002019080546001816001161561010002031660029004610ce6929190611068565b5060038201816003019080546001816001161561010002031660029004610d0e929190611068565b5060048201816004019080546001816001161561010002031660029004610d36929190611068565b50600582015481600501555050506000809050600180549050811015610e7957826040516020018082805190602001908083835b60208310610d8d5780518252602082019150602081019050602083039250610d6a565b6001836020036101000a0380198251168184511680821785525050505050509050019150506040516020818303038152906040528051906020012060018281548110610dd557fe5b90600052602060002090600602016003016040516020018082805460018160011615610100020316600290048015610e445780601f10610e22576101008083540402835291820191610e44565b820191906000526020600020905b815481529060010190602001808311610e30575b5050915050604051602081830303815290604052805190602001201415610e6f576001915050610e7b565b6000915050610e7b565b505b919050565b60018181548110610e8d57fe5b9060005260206000209060060201600080820160009055600182016000610eb491906110ef565b600282016000610ec491906110ef565b600382016000610ed491906110ef565b600482016000610ee491906110ef565b600582016000905550507fac81cd35bb860c391bbd547550abd951ad1757096882e4112332a179654afde2816040518082815260200191505060405180910390a160008081548092919060019003919050555050565b6040518060c00160405280600054815260200186815260200185815260200184815260200183815260200182815250600160005481548110610f7857fe5b9060005260206000209060060201600082015181600001556020820151816001019080519060200190610fac929190611137565b506040820151816002019080519060200190610fc9929190611137565b506060820151816003019080519060200190610fe6929190611137565b506080820151816004019080519060200190611003929190611137565b5060a082015181600501559050507f2cc68aab0ad495ce4982e3321fcfb3a2c5d006ac2bc3b8df09cb78b400b3a2d76000546040518082815260200191505060405180910390a160008081548092919060010191905055505050505050565b60005481565b828054600181600116156101000203166002900490600052602060002090601f016020900481019282601f106110a157805485556110de565b828001600101855582156110de57600052602060002091601f016020900482015b828111156110dd5782548255916001019190600101906110c2565b5b5090506110eb91906111b7565b5090565b50805460018160011615610100020316600290046000825580601f106111155750611134565b601f01602090049060005260206000209081019061113391906111b7565b5b50565b828054600181600116156101000203166002900490600052602060002090601f016020900481019282601f1061117857805160ff19168380011785556111a6565b828001600101855582156111a6579182015b828111156111a557825182559160200191906001019061118a565b5b5090506111b391906111b7565b5090565b6111d991905b808211156111d55760008160009055506001016111bd565b5090565b9056fea265627a7a72315820c88bf0c8f9b24c473a8f1b71f3d7a765a3f45d5f9a2d3fe5d2d27f244bc4f41464736f6c63430005100032",
  "source": "pragma solidity >=0.4.22 <0.9.0;\r\n\r\n\r\ncontract Vaccination{\r\n\r\n    uint public nbOwners ;\r\n\r\n    struct Owner{\r\n\r\n        uint256 id ;\r\n        string CIN ;\r\n        string FullName ;\r\n        string qrHash ;\r\n        string vaccine_name;\r\n        uint nb_shots ;\r\n\r\n    }\r\n\r\n\r\n    \r\n    Owner[] public owners ; // list des owners contient toutes les owners légitimes du passe vaccinale\r\n\r\n\r\n    Owner owner1 = Owner(1 , \"A1234\" ,  \"Reda foo\" , \"Reda foo\", \"senofarm\" , 2 );\r\n    Owner owner2 = Owner(2 , \"B1234\" ,  \"Ayoub noo\" , \"Ayoub noo\" , \"senofarm\" , 2 );\r\n    Owner owner3 = Owner(3 , \"GA345\" , \"Sara loo\"  , \"Sara loo\", \"senofarm\" , 2 );\r\n    Owner owner4 = Owner(4 , \"C3456\" , \"Yahya soo\"  ,\"Yahya soo\" , \"senofarm\" , 2 );\r\n    Owner owner5 = Owner(5 , \"D3456\" , \"Hiba lbassla\" ,\"Hiba lbassla\" , \"senofarm\" , 2 );\r\n   \r\n\r\n\r\n    constructor() public {\r\n\r\n        nbOwners = 0;\r\n    }\r\n\r\n    event OwnerAdded(uint256 _id);\r\n    event OwnerVerified(uint _id);\r\n    event OwnerDeleted(uint _id);\r\n\r\n\r\n    function addOwner(string memory _cin , string memory _fullName , string memory _qrhash , string memory _nameOfvaccine, uint _nbOfshots) public {\r\n\r\n        owners[nbOwners] = Owner(nbOwners , _cin , _fullName , _qrhash , _nameOfvaccine , _nbOfshots);\r\n        emit OwnerAdded(nbOwners);\r\n\r\n        nbOwners++; \r\n\r\n    }\r\n\r\n    function deleteOwner(uint256 _id) public{\r\n        delete owners[_id];\r\n        emit OwnerDeleted(_id);\r\n        nbOwners--;\r\n\r\n    }\r\n\r\n    function verifyOwner(string memory qr) public returns(bool ){\r\n\r\n        owners.push(owner1);\r\n        owners.push(owner2);\r\n        owners.push(owner3);\r\n        owners.push(owner4);\r\n        owners.push(owner5);\r\n\r\n        for(uint i=0 ; i< owners.length ; i+=1){\r\n            if(keccak256(abi.encodePacked(owners[i].qrHash)) == keccak256(abi.encodePacked(qr))){\r\n                return true;\r\n            }\r\n            return false ;\r\n            \r\n\r\n        } \r\n    }\r\n\r\n}",
  "sourcePath": "C:\\Users\\hp\\Desktop\\INPT2\\Security_Project_Dart\\pass_vaccinal_verification\\contracts\\Vaccination.sol",
  "compiler": {
    "name": "solc",
    "version": "0.5.16+commit.9c3226ce.Emscripten.clang"
  },
  "schemaVersion": "3.4.3",
  "updatedAt": "2022-01-28T15:41:33.158Z",
  "devdoc": {
    "methods": {}
  },
  "userdoc": {
    "methods": {}
  }
}